:03000000020BE40C
:0C0BE400787FE4F6D8FD75812E020C2B02
:080EDB000E0C0D090B030706C4
:060EE300040800000000FD
:100C7000AB07AA067C277D1012095FEF2430F5111F
:100C80007C277D10AF03AE0212095FAA04AB057C7E
:100C9000037DE8AF03AE0212095FEF2430F50C7C50
:100CA000037DE8AF03AE0212095FAA04AB057C0026
:100CB0007D64AF03AE0212095FEF2430F50D7C00B6
:100CC0007D64AF03AE0212095FAA04AB057C007D10
:100CD0000AAF03AE0212095FEF2430F5107C007DED
:0E0CE0000AAF03AE0212095FED2430F51222B6
:100D7C00E4FDFCC3ED9FEC9E5015E4FBFA0BBB00AD
:0F0D8C00010AEB64794A70F50DBD00010C80E49B
:010D9B002235
:100E7100758901758CF8758ACDD28CD2A9D2AF2231
:080CEE008F288E278D268C252E
:100CF600E4F52AF52EF52DF52CF52BFF7E10FDFCDF
:100D0600AB28AA27A926A8251209B4E47B687A018C
:100D1600F9F8120A3F8F2E8E2D8D2C8C2B782B7482
:100D2600FF120AE1EC4D4E4F601FE59054F0F52995
:100D3600E52A900EDB934229852990052A532A0736
:0C0D46007FC87E00120EC680D443900FC0
:010D5200227E
:0A0ED100E4F50BF50AF509F5082217
:0B0EC600EF1FAC0670011E4C70F622FE
:100E24007580FFC290D29100C2950000D295E580F2
:060E340020E7F0C2952248
:100E0D00ED6003120E24C2958F80C290C291000036
:070E1D00D2950000C29522EE
:100E3A00120E24C2958F80D290C2910000D29500E2
:040E4A0000C295222B
:100DD9007D017F38120E0D7F08120E0D7F01120E54
:0B0DE9000D7F06120E0D7F0C020E0D98
:100D9C00AE07AC0353050153060FED600343064049
:0F0DAC00430680AF06E4FD120E0DAF04020E3AAF
:100E60000000000000000000000000000000000082
:010E7000225F
:0E0E81007F307E02EF1FAC0670011E4C70F633
:010E8F002240
:0F0E9000D2B6D2B7120E60C2B6120E60C2B7222F
:0C0EBA00C2B6D2B7120E60D2B6020E60B3
:0E0E9F00A20092B6D2B7120E60C2B7020E6069
:0D0EAD00D2B7120E60A2B6C2B7120E6022BC
:100DF400E4FEEF25E0FF92B6D2B7120E60C2B7123E
:090E04000E600EBE08EC020EADFA
:100DBB00E4FFD2B6FEEF25E0FFD2B7120E60A2B66B
:0D0DCB00E4334207C2B7120E600EBE08E806
:010DD80022F8
:100E4E00AD07120E907F46120DF4AF05120DF4028F
:020E5E000EBACA
:100D5300120E907F47120DF4E4FD120DBB74132D98
:100D6300F8A607BD0304D2008002C200120E9F0D35
:090D7300BD03E7120EBA020E8165
:050EEA007F01020E4E25
:100AFF007F647E00120D7C120DD9120EEA7F011257
:100B0F000E4E7F10120E4E7FB47E00120D7C120D12
:100B1F0053750E0085130FE50FFE7C00E42514F5C9
:100B2F000FEC3EF50EFCAD0F1208A57B9A7A997962
:100B3F0099783F1208038F248E238D228C2112085F
:100B4F00DE120C707B4CE4FDFF120D9C7B69E4FD03
:100B5F007F01120D9C7B67E4FD7F02120D9C0BE45D
:100B6F00FD7F03120D9C7B74E4FD7F04120D9C7BB3
:100B7F003AE4FD7F05120D9CAB11E4FD7F07120DCA
:100B8F009CAB0CE4FD7F08120D9CAB0DE4FD7F09BF
:100B9F00120D9CAB10E4FD7F0A120D9CAB12E4FD0D
:100BAF007F0B120D9C7B6CE4FD7F0D120D9C7B78EF
:100BBF00E4FD7F0E120D9CD3E50F9432E50E648099
:100BCF0094805003020B0C7F5A7E007D007C001234
:050BDF000CEE020B0CFE
:10080000020954EC5D046005E85904700302094ACA
:10081000120915580460F6EC4860F2EC7004FDFE15
:10082000FF22C860DB2481C85009C39860025006CB
:100830000209519850CAF582E9294B4A7005AB82EA
:1008400002094075F0007C1A7880C3EF9BEE9AEDA8
:1008500099400DC3EF9BFFEE9AFEED99FDE842F043
:10086000DC23ACF0D0E0FFD0E0FED0E0FDAB822096
:10087000E7101BEB60BAEC2CFCEF33FFEE33FEED20
:1008800033FD02092CE803F830E705C0F075F000ED
:10089000EF2FFFEE33FEED33FD40B830E7C280AA04
:1008A00075F020800E75F010800575F0087D007ED3
:1008B000007F003392D530D503120AD1EC334010BB
:1008C000EF33FFEE33FEED33FDEC33FCD5F0ED22DC
:0E08D000E5F0247EA2D513CC92E7CDCEFF2218
:1008DE00EDD2E7CD33EC3392D524814006E4FFFE12
:1008EE00FDFC22FCE4CFCECDCC24E0501174FF8071
:1008FE00EDC3CC13CCCD13CDCE13CECF13CF04700E
:07090E00F030D5DE020AD132
:10091500E9D2E7C933E833F892D5EDD2E7CD33EC28
:0709250033FC5002B2D522A1
:10092C00EC30E7100FBF000C0EBE00080DBD00042C
:10093C000BEB6014A2D5EB13FCED92E7FD2274FFD8
:10094C00FCFDFEFF22E480F8A2D574FF13FC7D8031
:03095C00E480EF45
:100BF000020AFFE493A3F8E493A34003F68001F212
:100C000008DFF48029E493A3F85407240CC8C33305
:100C1000C4540F4420C8834004F456800146F6DFD4
:100C2000E4800B0102040810204080900EE3E47E73
:100C3000019360BCA3FF543F30E509541FFEE493C9
:100C4000A360010ECF54C025E060A840B8E493A390
:100C5000FAE493A3F8E493A3C8C582C8CAC583CABB
:100C6000F0A3C8C582C8CAC583CADFE9DEE780BE73
:010EE9000008
:10095F00BC000BBE0029EF8DF084FFADF022E4CC7C
:10096F00F875F008EF2FFFEE33FEEC33FCEE9DEC45
:10097F00984005FCEE9DFE0FD5F0E9E4CEFD22ED8B
:10098F00F8F5F0EE8420D21CFEADF075F008EF2FD5
:10099F00FFED33FD4007985006D5F0F222C398FDC6
:0509AF000FD5F0EA2263
:1009B400E88FF0A4CC8BF0A42CFCE98EF0A42CFCE2
:1009C4008AF0EDA42CFCEA8EF0A4CDA8F08BF0A460
:1009D4002DCC3825F0FDE98FF0A42CCD35F0FCEBBF
:1009E4008EF0A4FEA9F0EB8FF0A4CFC5F02ECD3984
:0F09F400FEE43CFCEAA42DCE35F0FDE43CFC22F1
:100A030075F008758200EF2FFFEE33FECD33CDCCAA
:100A130033CCC58233C5829BED9AEC99E58298402D
:100A23000CF582EE9BFEED9AFDEC99FC0FD5F0D60A
:100A3300E4CEFBE4CDFAE4CCF9A88222B800C1B934
:100A43000059BA002DEC8BF084CFCECDFCE5F0CB72
:100A5300F97818EF2FFFEE33FEED33FDEC33FCEBAB
:100A630033FB10D703994004EB99FB0FD8E5E4F966
:100A7300FA227818EF2FFFEE33FEED33FDEC33FC53
:100A8300C933C910D7059BE99A4007EC9BFCE99A47
:100A9300F90FD8E0E4C9FAE4CCFB2275F010EF2F8C
:100AA300FFEE33FEED33FDCC33CCC833C810D7078C
:100AB3009BEC9AE899400AED9BFDEC9AFCE899F8C7
:0E0AC3000FD5F0DAE4CDFBE4CCFAE4C8F9225A
:0E0AD100C3E49FFFE49EFEE49DFDE49CFC2236
:100ADF007401FF3395E0FEFDFC080808E6CF2FF602
:100AEF0018E6CE3EF618E6CD3DF618E6CC3CF622DB
:00000001FF
