:030000000209AF43
:0C09AF00787FE4F6D8FD7581110209A2E2
:0809C6000E0C0D090B030706DE
:0D09A2007F287E237D007C0012093D80FE31
:08093D008F0B8E0A8D098C0856
:10094500E4F50DF511F510F50FF50EFF7E10FDFC24
:10095500AB0BAA0AA909A808120800E47B687A016A
:10096500F9F812088B8F118E108D0F8C0E780E747E
:10097500FF12091FEC4D4E4F601FE59054F0F50C2A
:10098500E50D9009C693420C850C90050D530D0796
:0C0995007FC87E001209BB80D443900F85
:0109A1002233
:0B09BB00EF1FAC0670011E4C70F6220E
:10080000E88FF0A4CC8BF0A42CFCE98EF0A42CFC97
:100810008AF0EDA42CFCEA8EF0A4CDA8F08BF0A415
:100820002DCC3825F0FDE98FF0A42CCD35F0FCEB74
:100830008EF0A4FEA9F0EB8FF0A4CFC5F02ECD3939
:0F084000FEE43CFCEAA42DCE35F0FDE43CFC22A6
:10084F0075F008758200EF2FFFEE33FECD33CDCC60
:10085F0033CCC58233C5829BED9AEC99E5829840E3
:10086F000CF582EE9BFEED9AFDEC99FC0FD5F0D6C0
:10087F00E4CEFBE4CDFAE4CCF9A88222B800C1B9EA
:10088F000059BA002DEC8BF084CFCECDFCE5F0CB28
:10089F00F97818EF2FFFEE33FEED33FDEC33FCEB61
:1008AF0033FB10D703994004EB99FB0FD8E5E4F91C
:1008BF00FA227818EF2FFFEE33FEED33FDEC33FC09
:1008CF00C933C910D7059BE99A4007EC9BFCE99AFD
:1008DF00F90FD8E0E4C9FAE4CCFB2275F010EF2F42
:1008EF00FFEE33FEED33FDCC33CCC833C810D70742
:1008FF009BEC9AE899400AED9BFDEC9AFCE899F87D
:0E090F000FD5F0DAE4CDFBE4CCFAE4C8F9220F
:10091D007401FF3395E0FEFDFC080808E6CF2FF6C5
:10092D0018E6CE3EF618E6CD3DF618E6CC3CF6229E
:00000001FF
